:020000040800F2
:10000000F00600206501000885120008351200087E
:1000100000000000000000000000000000000000E0
:10002000000000000000000000000000DD140008D7
:10003000000000000000000087120008DF14000824
:100040007701000800000000770100087701000830
:1000500077010008770100087701000877010008A0
:100060000000000077010008770100087701000810
:100070007701000877010008770100080000000000
:100080007701000800000000000000007701000870
:1000900000000000770100087701000877010008E0
:1000A0007701000877010008770100087701000850
:1000B00077010008000000000000000000000000C0
:1000C00000F002F800F03EF80CA030C80838241800
:1000D0002D18A246671EAB4654465D46AC4201D180
:1000E00000F030F87E460F3E0FCCB6460126334274
:1000F00000D0FB1AA246AB4633431847BC1500009C
:10010000DC150000103A02D378C878C1FAD852073B
:1001100001D330C830C101D504680C6070470000BD
:100120000023002400250026103A01D378C1FBD813
:10013000520700D330C100D50B6070471FB51FBDFB
:1001400010B510BD00F0FAF81146FFF7F7FF01F007
:1001500021FA00F012F903B4FFF7F2FF03BC00F03C
:1001600019F900000748804707480047FEE7FEE707
:10017000FEE7FEE7FEE7FEE704480549054A064BB1
:10018000704700004F150008C1000008F000002073
:10019000F0060020F0020020F002002001E004C080
:1001A000091F0429FBD28B0701D50280801CC907D7
:1001B00000D00270704700290BD0C30702D0027034
:1001C000401C491E022904D3830702D50280801CEB
:1001D000891EE3E70022EEE70022DFE700220309A1
:1001E0008B422CD3030A8B4211D300239C464EE052
:1001F00003460B433CD4002243088B4231D303090E
:100200008B421CD3030A8B4201D394463FE0C309BF
:100210008B4201D3CB01C01A524183098B4201D3D7
:100220008B01C01A524143098B4201D34B01C01AC2
:10023000524103098B4201D30B01C01A5241C3083A
:100240008B4201D3CB00C01A524183088B4201D3A9
:100250008B00C01A524143088B4201D34B00C01A95
:100260005241411A00D201465241104670475DE0AA
:10027000CA0F00D04942031000D34042534000222D
:100280009C4603098B422DD3030A8B4212D3FC22D6
:10029000890112BA030A8B420CD3890192118B4255
:1002A00008D3890192118B4204D389013AD092116B
:1002B00000E08909C3098B4201D3CB01C01A524126
:1002C00083098B4201D38B01C01A524143098B42EF
:1002D00001D34B01C01A524103098B4201D30B01D8
:1002E000C01A5241C3088B4201D3CB00C01A5241FD
:1002F00083088B4201D38B00C01A5241D9D24308E4
:100300008B4201D34B00C01A5241411A00D2014620
:10031000634652415B10104601D34042002B00D58A
:100320004942704763465B1000D3404201B500204C
:10033000C046C04602BD704770477047754600F022
:1003400025F8AE46050069465346C008C0008546FC
:1003500018B020B5FFF710FF60BC00274908B6466B
:100360000026C0C5C0C5C0C5C0C5C0C5C0C5C0C5C4
:10037000C0C5403D49008D46704710B50446C04693
:10038000C0462046FFF7E7FE10BD0000004870475A
:100390008C00002001491820ABBEFEE726000200B9
:1003A0007047000070B5044600F0C2F80546601CB6
:1003B00002D004480078241800F0BAF8401BA0428C
:1003C000FAD370BD0C000020F0B5002303249AE09E
:1003D0002A4601259D402A407ED00E79B607B60FE9
:1003E000012E01D0022E16D186682746B4465E0043
:1003F000B646B7406646BE43B446CF687646B74079
:100400006646374387604668AE430D79ED06ED0FCB
:100410009D40354345600D79ED43AD0708D0C56873
:100420005F002646BE40B5438E68BE402E43C66080
:100430000D79AD07AD0F022D0ED1DD08AD002D18E1
:10044000AC462D6A5E07F60E0F27B740BD430F6915
:10045000B7402F4365462F6205685F002646BE40C1
:10046000B5430E79B607B60FBE402E4306604D6801
:10047000AD03AD0F46D09E08264DB6007519AC46AB
:100480002D6E9E07F60E0F27B740BD4305273F0789
:10049000B84201D100270FE01F4FB84201D1012718
:1004A0000AE01E4FB84201D1022705E01C4FB842B6
:1004B00001D1032700E00527B7402F43154D6646BD
:1004C00037662D684E689543F60200D51543114FE7
:1004D0003D607D68954300E014E04E68B60200D5AB
:1004E00015437D600B4D80356E684F689643BF03A2
:1004F00000D516436E602E684F689643FF0300D503
:1005000016432E605B1C0A681546DA4000D05FE790
:10051000F0BD000000180240000400500008005028
:10052000000C0050002A01D0816170478162704741
:1005300001488068704700000C0000200248816874
:1005400002788918816070470C00002010B50848B7
:1005500000240168821511430160032000F00AF8AD
:10056000002801D0012401E000F028F8204610BD49
:100570000020024070B50F4E002431780546002956
:1005800015D07D20C000FFF729FE01460A4800680B
:10059000FFF724FE00F036FE002808D1042D06D215
:1005A00000222946401E00F01FF8756000E001247B
:1005B000204670BD0C0000201800002008B5094836
:1005C0000168012211430160006810400090054855
:1005D0004038C26B01040A43C263C06B08400090FC
:1005E00008BD00004010024010B500F0B1FF10BD82
:1005F00010B50F4C21680322520291430143216040
:10060000C11FFF39FA390ED10A4806210068484354
:100610000949FFF7E3FD401C02E0002805D0401E19
:1006200061694905F9D4002010BD032010BD000008
:10063000007000401800002040420F00F8B50F463F
:10064000060043D04D4D28684007400FB84213D2F2
:100650002868C008C00038432860FFF769FF0446D7
:1006600005E0FFF765FF011B4548814261D8286816
:100670004007400FB842F4D13068424C81070DD595
:10068000400704D5A068072109030843A060A068BB
:100690000F2109028843B1680843A0603078C00781
:1006A00032D0706801280AD002280BD000280FD061
:1006B0003449403103280ED0C969890704E0216814
:1006C000890301E021688901002906DB0120F8BDCA
:1006D00021684905F8E7096AEFE7A168C908C90078
:1006E0000143A160FFF724FF009006E0FFF720FF21
:1006F0000099411A224881421BD8A068382108403D
:100700007168C9008842F1D128684007400FB8429B
:1007100017D91A480168C908C90039430160FFF7B1
:1007200007FF054607E0FFF703FF411B144881421E
:1007300001D90320F8BD114800684007400FB842B6
:10074000F1D13078400706D5A06807210903884316
:10075000F1680843A06000F01DF8A1683C228909F7
:100760001140094A515CC906C90EC84007490860D2
:1007700007480068FFF7FEFEF8BD000000200240B9
:1007800088130000001002407816000818000020AE
:100790001000002010B5204CA068204A8006400FB1
:1007A00016D0A0688006410F501001290FD0A16813
:1007B0008906490F022912D0A0688006400F04283C
:1007C00023D0A0688006400F032821D0002010BD50
:1007D000206801218004400F8140104612E0E1684A
:1007E0008B07E1689B0F4906490F491C032B00D07A
:1007F0001046FFF7F3FCE1684904490E4843E168FD
:10080000490F491CFFF7EAFC10BD0120C00310BDD1
:100810007D20000210BD0000001002400024F40002
:10082000F8B504007ED020783827C007E94D0028AD
:1008300046D0A868E96838408907890F102802D097
:1008400008280BD001E0032908D0012062680004C9
:1008500082420AD129680143296015E02868800393
:100860002ED560680028DDD02AE0052301211B0475
:1008700089049A422A6802D10A432A60EAE782433D
:100880002A60286888432860606800280CD0FFF739
:100890004FFE064604E0FFF74BFE801B642873D82A
:1008A00028688003F7D50BE0FFF742FE064604E018
:1008B000FFF73EFE801B6428F1D828688003F7D438
:1008C0002078800769D5A868E96838408A07072139
:1008D000920FC902102802D0002813D001E0022A8A
:1008E00010D0E068002846D0286888432169084372
:1008F00028602868FF21013108432860FFF718FEAF
:1009000006462CE02A68520502D5E268002A89D002
:100910006A687F231B029A4363691B021A436A6059
:10092000002800E08DE00ED1286888432169084343
:100930002860286801218004400F8140A648FFF705
:100940004DFCA6490860A6480068FFF713FE002882
:1009500077D122E0FFF7ECFD801B02289FD82868A2
:100960004005F7D568687F2109028843616909025B
:100970000843686011E02968FF2001308143296045
:10098000FFF7D6FD064605E098E0FFF7D1FD801B96
:10099000022884D828684005F7D42078914E0007B3
:1009A0002ED5A8688006400F03280AD0A069002829
:1009B000306A16D0012108433062FFF7B9FD0746BF
:1009C0000BE0306A80071BD5A06900289FD017E094
:1009D000FFF7AEFDC01B022870D8306A8007F7D53C
:1009E0000EE0400840003062FFF7A2FD074604E039
:1009F000FFF79EFDC01B022860D8306A8007F7D43D
:100A0000207840076CD5A86800278006400F04288E
:100A100018D0E86BC00008D4E96B0120000701433F
:100A2000E963E96B0140012700916F480168C9053E
:100A300019D40168821511430160FFF779FD009018
:100A40000DE083E0F06980074AD5A06800287DD0DA
:100A500046E0FFF76DFD0099401A02282ED8624843
:100A60000068C005F5D5A168012910D0042005292A
:100A7000F16911D049084900F161F1698143F161DF
:100A8000A068002816D0FFF753FD00900EE0F06933
:100A900001210843F061F3E70143F161F7E7FFF754
:100AA00047FD0099411A5148814265D8F069800795
:100AB000F5D50EE0FFF73CFD009007E05CE0FFF7A6
:100AC00037FD0099411A4948814255D8F06980079D
:100AD000F5D4002F04D0E96B012000078143E963BE
:100AE000E069002873D0A9688906490F02294DD012
:100AF000012636060228286805D0B0432860FFF793
:100B000017FD04463AE0B0432860FFF711FD0746A1
:100B100004E0FFF70DFDC01B02282DD828688001D6
:100B2000F7D4616A206AA26A0843E16A120211439B
:100B30000843216B0843E9682D4A11400843E860E7
:100B4000286830432860E868012100E03DE009079B
:100B50000843E860FFF7ECFC044604E0FFF7E8FC1C
:100B6000001B022808D828688001F7D52FE0FFF77E
:100B7000DFFC001B022801D90320F8BD2868800192
:100B8000F5D4E8681B490840E86020E00128F4D06B
:100B9000E868226A8107890F914216D17021626A42
:100BA0000140914211D17F21A26A09020140120243
:100BB00091420AD11F214904E26A0140914204D1C5
:100BC000400F216B4007884201D00120F8BD002072
:100BD000F8BD0000001002400024F40018000020BE
:100BE00010000020401002400070004088130000F8
:100BF0008C80C11FFCFFFEEFF8B504000CD0606ACA
:100C0000002500280AD02561656126464036A56288
:100C1000707F002808D00BE00120F8BD6168C81F74
:100C2000FD38F2D0E561F0E73577204600F05CF85A
:100C300002227277206801684023994301600723EC
:100C4000E1681B02994201D9002001E00120000364
:100C50000F273F02B94202D0994200D0A562FF237C
:100C60006168053319402127A368BF023B4019433F
:100C700023691340227D1943D207D20F1143012368
:100C8000A2695B021A401143E26938231A401143FA
:100C9000226A80231A401143A26A9B011A40114321
:100CA00022681160A1690422090C1140626A1023B4
:100CB0001A401143626B08231A4011430F23E26864
:100CC0001B021A4011430122120310400143206805
:100CD00041602068C16952109143C16125660120BD
:100CE00070770020F8BD000010B586B004461421CE
:100CF0006846FFF771FA1049206888421AD10F48F8
:100D0000C26B09140A43C263C26B0A400592426B6C
:100D100002210A434263406B01910840059007207D
:100D2000400300900020029003900490694604481C
:100D3000FFF74AFB06B010BD00380040001002402B
:100D400000040050FFB50026054604464035687F84
:100D500081B01746012801D00226A3E06168C81FB0
:100D6000FD3802D1A068002824D0287F01282DD08A
:100D700001202877FFF7DCFB00900298002871D053
:100D8000002F6FD00420687700202066029921642C
:100D9000AF80EF80A063A087E087E0642065072133
:100DA0000120E268090200038A42226853680FD9D1
:100DB00083430EE00420687713460498029A00905B
:100DC0001146204600F022F905B0F0BD0220FBE7F5
:100DD000034353600123A068DB034022984208D1FB
:100DE0002068036893430360206803681702BB43CD
:100DF0000360206803685B0602D403681343036042
:100E0000E06888421AD93AE020688168C90709D0A9
:100E1000007B216C0870206C401C2064E888401E18
:100E2000E8800BE0FFF784FB0099411A04988142A7
:100E300002D3401C02D005E0002803D0E888002837
:100E4000E2D11FE003262BE020688168C9070AD0A1
:100E5000C068216C0880206C801C2064E888401EDB
:100E6000E8800CE01AE0FFF763FB0099411A049850
:100E7000814202D3401C02D0E4E70028E2D0E88897
:100E80000028E1D12046009A049900F0FDF90028DD
:100E900001D020202066206E002801D0012601E02C
:100EA000012068770020287730468DE7FFB505469A
:100EB00004464035287F002781B01646012809D016
:100EC00001202877FFF734FB0090687F012804D0C9
:100ED000022797E0022005B0F0BD0298002874D0E8
:100EE000002E72D003206877002020660299A1634B
:100EF000A687E6872064A880E8802065E064012258
:100F0000A068D2034021904208D1206802688A4339
:100F10000260206802680B021A43026020680268BF
:100F2000520602D402680A4302600721E0680902FF
:100F30008842606828D9002801D0012E1ED1A06BFC
:100F400021680088C86006E020688168890709D5A3
:100F5000A16B0988C160A06B801CA063E08F401E5C
:100F6000E0870BE0FFF7E4FA0099411A0498814208
:100F700002D3401C02D005E0002803D0E08F0028F7
:100F8000E2D128E003273BE0002801D0012E1FD149
:100F9000A06B21680078087306E0206881688907E3
:100FA00009D5A16B09780173A06B401CA063E08F89
:100FB000401EE0870CE0FFF7BBFA0099411A049845
:100FC000814203D3401C03D0DCE717E00028D9D0CE
:100FD000E08F0028E1D12046009A049900F090F9B2
:100FE000002801D020202066A068002803D12068B6
:100FF000C16880680090206E002801D0012701E0C0
:101000000120687700202877384664E7FFB504465A
:1010100083B00120254640350090287F00271E46DA
:1010200001280FD001202877FFF782FA0190687F0E
:10103000616801280DD0CA1FFD3A08D1A1680029B6
:1010400005D102E0022007B0F0BD042801D002273C
:10105000D4E0049800286FD005980028FBD0002E1B
:10106000F9D0687F042801D0052068770020206629
:1010700005992164EE80AE800499A163E687A68776
:10108000E064206507210120E268090200038A422A
:101090002268536801D9834300E00343536020680A
:1010A0000268520603D4026840231A430260E068D3
:1010B0008842606848D9002801D0012E3DD1A06B3C
:1010C00001882068C160A06B801CA063E08F401E77
:1010D000E08732E020688168890710D5E18F002918
:1010E0000DD0009901290AD1A16B0988C160A06BBC
:1010F000801CA063E08F401EE087002000902068E5
:101100008168C9070DD0E98800290AD0C068216C20
:101110000880206C801C2064E888401EE880012044
:101120000090FFF705FA0199401A0C99884204D300
:10113000481C02D003275FE05CE0E08F0028C9D1A3
:10114000E8880028C6D148E0002801D0012E3ED111
:10115000A06B216800780873A06B401CA063E08F2F
:10116000401EE08733E020688168890710D5E18F51
:1011700000290DD0009901290AD1A16B09780173CA
:10118000A06B401CA063E08F401EE0870020009011
:1011900020688168C9070DD0E98800290AD0007B42
:1011A000216C0870206C401C2064E888401EE88098
:1011B00001200090FFF7BCF901460198091A0C982C
:1011C000814202D3401C02D0B4E70028B2D0E08FA5
:1011D0000028C8D1E8880028C5D12046019A0C997A
:1011E00000F08EF8002802D0012720202066206E13
:1011F000002801D0012701E001206877002028772E
:10120000384620E7094910B5401E884201D901201F
:1012100010BD074C60610321081F00F099F9002000
:10122000A06107202061002010BD0000FFFFFF002B
:1012300000E000E0FEE7000010B511480F49016032
:10124000FF21053141600021072281601202016106
:10125000C260012241615202826101621822416230
:10126000C26181620722C262016308214163FFF704
:10127000C3FC002801D072B6FEE710BD0038004064
:101280001C000020FEE77047F7B504464068FF26C3
:10129000053682B01546B0420CD10121A068C903C1
:1012A000884202D04911884204D120680168402256
:1012B000914301600095002280212046039B00F0AD
:1012C000B1F82027002813D16068B04216D1A06879
:1012D000B902884202D0491188420FD103210095FA
:1012E000002249022046039B00F030F8002805D078
:1012F000206E38432066032005B0F0BD0020FBE7D8
:10130000F8B50F460B46154600920321044600220D
:10131000C90200F01BF82026002812D13B4600220B
:1013200080212046009500F07DF8002809D1032196
:101330003B46002249022046009500F007F80028AD
:1013400003D0206E304320660320F8BDFFB585B082
:101350000E460446002069460E9D17460871FFF7A9
:10136000E7F8411B0898451AFFF7E2F80390206858
:1013700023210C3002902A4800684843000D68433E
:1013800046E003204002864206D1002F04D1029895
:1013900001786846017100790898401C39D0FFF740
:1013A000C7F80399401AA84205D2002D03D000982F
:1013B00000282BD02BE020684168E0229143416057
:1013C0006068C11FFD390CD10121A068C9038842A2
:1013D00002D04911884204D120680168402291431B
:1013E00001600120A16A4003814207D121680A6897
:1013F00082430A6021680A6802430A60012040347F
:10140000607700202077032009B0F0BD0025401E42
:101410000090206880683040B842B2D10020F3E7E5
:1014200018000020FFB581B01E4604460A9DFFF754
:101430007FF8401B351AFFF77BF8074626480068FF
:101440004001000D684339E0701C38D0FFF770F898
:10145000C01BA84205D2002D03D0009800282BD035
:101460002BE020684168E022914341606068C11F21
:10147000FD390CD10121A068C903884202D049116D
:10148000884204D120680168402291430160012014
:10149000A16A4003814207D121680A6882430A6039
:1014A00021680A6802430A60012040346077002006
:1014B0002077032005B0F0BD0025401E0090206875
:1014C00081680298884305D0002103988142BBD1EE
:1014D0000020EFE70121F8E718000020704710B561
:1014E000FFF72CF810BD30B591B034216846FEF7F7
:1014F00073FE002501200D950E950F954002109565
:10150000FFF776F80224E001039000944020059054
:1015100009200A9020040B900794400304950C9036
:10152000099508946846FFF77BF9002801D072B648
:10153000FEE707200DA931C101210DA81095FFF785
:101540007DF8002801D072B6FEE711B030BD7047BB
:101550008307FF22DB0E9A408907090E9940002875
:1015600008DB830809489B001B1818689043084350
:10157000186070470007000F0838830804489B0074
:101580001B18D86990430843D861704700E400E015
:1015900000ED00E086B0FEF7D9FFFFF7A4FF1421AD
:1015A0006846FEF719FE1648426B02210A43426361
:1015B000406B144C0840144D0590002221462846EB
:1015C000FEF7B0FF009401200024019002946946C8
:1015D00028460394FEF7F8FE08200090112000042E
:1015E0000190694602942846FEF7EEFEFFF724FEBE
:1015F0007D24E40000F00AF82046FEF7D3FEF9E768
:1016000000100240101000000004005070B50125C9
:10161000164E2D03002229463046FEF783FF14485C
:10162000006800E0C1688168C907FBD17D241049CA
:10163000E4002346092264310D48FFF783FB0C497F
:101640000020643148726420FEF7ACFE0023DB43C7
:101650000A2208490648FFF729FC0122294630469C
:10166000FEF760FF2046FEF79DFE70BD00040050AF
:101670001C0000200000002000000000000000000E
:10168000000000000000000000000000000000005A
:101690000000000000000000010000000200000047
:1016A0000300000004000000060000000700000026
:1016B0000800000009000000D81600080000002003
:1016C0001C00000004010008F41600081C000020A3
:1016D000D4060000200100082D4C0000000000008E
:1016E00000000000010000000400000000000000F5
:0416F0000024F400DE
:04000005080000C12E
:00000001FF
